:100000000C944A020C947F160C9454160C942916E6
:100010000C94FE150C94D3150C94A8150C947D1516
:100020000C9452150C947B020C947B020C947B0272
:100030000C94AA160C947B020C947B020C947B0209
:100040000C947B020C947B020C947B020C947B023C
:100050000C947B020C947B020C947B020C9408158C
:100060000C947B020C94D2140C94A8140C947B0274
:100070000C947B020C947B020C947B020C947B020C
:100080000C947B020C947B020C947B020C947B02FC
:100090000C947B020C947B020C947B020C947B02EC
:1000A0000C947B020C947B020C947B020C947B02DC
:1000B0000C947B020C947B020C947B020C947B02CC
:1000C0000C947B020C947B020C947B020C947B02BC
:1000D0000C947B020C947B020C947B020C947B02AC
:1000E0000C947B020C94DB020C94FC030C9429040A
:1000F0000C946E040C947D020C94B9020C941F04B1
:100100000C94CD020C942D040C94AA020C94E103DF
:100110000C9400040C9429170C940D040C942504E1
:100120000C9460030C9437040C9433040C94130364
:100130000C9404040C9411040C9407040C94F8031C
:100140000C9417040C94E6030C941B0400407A10E2
:10015000F35A00A0724E18090010A5D4E80000E878
:100160007648170000E40B54020000CA9A3B0000D6
:1001700000E1F505000080969800000040420F0065
:100180000000A08601000000102700000000E80326
:10019000000000006400000000000A0000000000F1
:1001A0000100000000002C76D888DC674F0823DFB0
:1001B000C1DFAE59E1B1B796E5E3E453C63AE65183
:1001C000997696E8E6C28426EB898C9B62ED407CAA
:1001D0006FFCEFBC9C9F40F2BAA56FA5F490055A46
:1001E0002AF75C936B6CF9676DC11BFCE0E40D476B
:1001F000FEF520E6B500D0ED902E0300943577058E
:100200000080841E080000204E0A000000C80C3345
:100210003333330F986E12831141EF8D2114893BD4
:10022000E65516CFFEE6DB18D1844B381BF77C1D54
:10023000901DA4BBE424203284725E228100C9F1A7
:1002400024ECA1E53D27303B3235353B25753B306D
:100250003B25753B0025753B25753B25753B257575
:100260003B25753B25730A00214D434F3A50524FB1
:100270003A52433D25750A00214D434F3A574149B3
:100280003A52433D25750A00214D434F3A574149A3
:100290003A52433D25750A004D434F3A5245473A7D
:1002A0004E4F54204E45454445440A004D434F3A75
:1002B00042474E3A494E4954204F4B2C5453503DDF
:1002C0004E410A004D434F3A42474E3A5354500A6A
:1002D000004D434F3A42474E3A4246520A004D4380
:1002E0004F3A42474E3A494E49542047572C4350C3
:1002F0003D522D4E47412D2D2D2C46513D25752C1F
:1003000052454C3D25752C5645523D322E332E32EA
:100310000A0000002100240027002A002D003000E0
:10032000330001010000040107010A010000200060
:100330002300260029002C002F00320000010000BD
:10034000030106010901005EBCE2613FDD83C29C3E
:100350007E20A3FD1F41009D23BE46DB65F88C1166
:10036000AF32CA57E97400002200250028002B0094
:100370002E003100340002010000050108010B01CC
:1003800005050505070508080808020202020A0A11
:10039000080804040404010101010101010103032F
:1003A000030303030303040707070C0C0C0C0C0CDA
:1003B0000C0C0202020206060606060606060B0BD7
:1003C0000B0B0B0B0B0B0102102020080810204018
:1003D0001020408002010201080402010102040809
:1003E0001020408080402010080402018004020197
:1003F00080402010080402010804020101020408E0
:1004000010204080010204081020408000000A0BE8
:1004100002090C0D0E080703040100000000000093
:1004200000000000000000000000000000000000CC
:100430000000000000000000121110000000000089
:1004400000000000000000000000000000000000AC
:1004500000004D434F3A534C503A5755503D256993
:100460000A004D434F3A534C503A4D533D256C755D
:100470002C534D533D25752C49313D25752C4D315F
:100480003D25752C49323D25752C4D323D25750A8B
:100490000000291711241FBECFEFD1E2DEBFCDBF70
:1004A00000E00CBF14E0A0E0B2E0E8ECF4E400E00F
:1004B0000BBF02C007900D92AA33B107D9F727E00E
:1004C000AAE3B4E001C01D92AA3CB207E1F712E032
:1004D000CAE4D2E000E006C021970109802FFE01A6
:1004E0000E94FE21C934D10780E00807A9F70E94C5
:1004F000B5170C9462220C940000AF92BF92CF9279
:10050000DF92EF92FF920F931F93CF93DF936C01D3
:100510007B018B01040F151FEB015E01AE18BF08B4
:10052000C017D10759F06991D601ED91FC91019066
:10053000F081E02DC6011995892B79F7C501DF916E
:10054000CF911F910F91FF90EF90DF90CF90BF90D0
:10055000AF900895FC01538D448D252F30E0842FFA
:1005600090E0821B930B541710F0CF9608950197DB
:100570000895FC01918D828D981761F0A28DAE0FC8
:10058000BF2FB11D5D968C91928D9F5F9F73928F4F
:1005900090E008958FEF9FEF0895FC01918D828D7B
:1005A000981731F0828DE80FF11D858D90E0089548
:1005B0008FEF9FEF0895FC01918D228D892F90E0A0
:1005C000805C9F4F821B91098F73992708958CEF50
:1005D00095E00E94DB0221E0892B09F420E0822FC4
:1005E0000895FC01A48DA80FB92FB11DA35ABF4FC8
:1005F0002C91848D90E001968F739927848FA68922
:10060000B7892C93A089B1898C91837080648C9375
:10061000938D848D981306C00288F389E02D808124
:100620008F7D80830895EF92FF920F931F93CF9356
:10063000DF93EC0181E0888F9B8D8C8D98131AC01D
:10064000E889F989808185FF15C09FB7F894EE8904
:10065000FF896083E889F989808183708064808361
:100660009FBF81E090E0DF91CF911F910F91FF90AC
:10067000EF900895F62E0B8D10E00F5F1F4F0F7354
:100680001127E02E8C8D8E110CC00FB607FCFACF0F
:10069000E889F989808185FFF5CFCE010E94F102BA
:1006A000F1CFEB8DEC0FFD2FF11DE35AFF4FF082E0
:1006B0009FB7F8940B8FEA89FB8980818062CFCF46
:1006C000CF93DF93EC01888D8823B9F0AA89BB8989
:1006D000E889F9898C9185FD03C0808186FD0DC074
:1006E0000FB607FCF7CF8C9185FFF2CF808185FF95
:1006F000EDCFCE010E94F102E9CFDF91CF910895B5
:1007000080E090E0892B29F00E94E70281110E948D
:10071000000080E090E0892B49F080E090E0892B98
:1007200029F00E94000081110E94000080E090E00A
:10073000892B49F080E090E0892B29F00E9400008D
:1007400081110E94000080E090E0892B49F080E058
:1007500090E0892B29F00E94000081110C94000088
:100760000895282F30E0F901E45FFB4F9491F901DF
:10077000EA53FC4F449120583C4FF9012491222325
:1007800009F435C0992311F191509231F8F4E92F11
:10079000F0E08827E153FC4F8F4F0C94FE210004BA
:1007A0000404E103F803FC03E60307040D04110449
:1007B00017041B041F0425042904E6032D04330435
:1007C0003704809180008F7780938000E22FF0E0E3
:1007D000EE0FFF1FEA59FC4FA591B4918FB7F89423
:1007E000EC91611148C040954E234C938FBF089502
:1007F000809180008F7DE8CF80918000877FE4CF5B
:1008000084B58F7784BDE2CF84B58F7DFBCF809197
:10081000B0008F778093B000D9CF8091B0008F7DEA
:10082000F9CF809190008F7780939000CFCF809107
:1008300090008F7DF9CF80919000877FF5CF8091D8
:10084000A0008F778093A000C1CF8091A0008F7D02
:10085000F9CF8091A000877FF5CF809120018F771D
:1008600080932001B3CF809120018F7DF9CF8091BB
:100870002001877FF5CF4E2BB8CF3FB7F8948091FA
:10088000F8059091F905A091FA05B091FB0526B500
:10089000A89B05C02F3F19F00196A11DB11D3FBFB8
:1008A000BA2FA92F982F8827BC01CD01620F711D87
:1008B000811D911D42E0660F771F881F991F4A9581
:1008C000D1F708952FB7F8946091F4057091F5056C
:1008D0008091F6059091F7052FBF08950895DC01EA
:1008E00080E0615090F09D919827E92FEF70F0E043
:1008F000EA5BFC4F2491E92FE295EF70F0E0EA5AB1
:10090000FC4FE491822F8E27ECCF0895DC012C91CF
:100910001196ED91FC91F8948181822B81839281D3
:10092000322F30959323928387E090E00197F1F77F
:1009300081818323818383E290E00197F1F79081A5
:100940007894EFECF0E03197F1F7922381E009F42D
:1009500080E00895FC0190810180F281E02D292F33
:10096000209560FF14C0F894828182238283818164
:10097000892B8183A3E2B0E01197F1F78281982B54
:100980009283789487ED90E00197F1F70895F894B9
:100990008281822382838181892B8183AFEFB0E0C2
:1009A0001197F1F78281982B928378948FE090E0F1
:1009B000EBCFDF92EF92FF920F931F93CF93DF93D2
:1009C000EC01D62EE42E08E010E0FF24F39461E061
:1009D0008D2D8F2109F460E0CE010E94AA04FF0C46
:1009E00001501109A1F7E11010C0F894E981FA81D2
:1009F00091818881809589238183E981FA8192811F
:100A000088818095892382837894DF91CF911F918B
:100A10000F91FF90EF90DF900895EF92FF920F9368
:100A20001F93CF93DF938C017B0140E065E50E942B
:100A3000D904E70188E0E80EF11C699140E0C801A3
:100A40000E94D904CE15DF05C1F7DF91CF911F9128
:100A50000F91FF90EF900895FC0190810180F28149
:100A6000E02DF8948181292F209582238183789429
:100A70003DE743E050E0315029F1DA011197F1F7F9
:100A800080818923C1F3F8948281822382838181CA
:100A9000892B81837894ABE7B7E01197F1F7F8944D
:100AA000818182238183A3E1B1E01197F1F78081F5
:100AB000982381E009F080E07894E3E6F6E031974E
:100AC000F1F7089580E008958F929F92AF92BF92C0
:100AD000CF92DF92EF92FF92CF93DF93EC01898563
:100AE0009A850E942C0540E06CEC89859A850E94CD
:100AF000D904488164E489859A850E94D9048C814F
:100B00008823E1F0EB818D81882319F1888181119F
:100B100020C00E9462046B017C0189859A850E9435
:100B20008604813059F00E9462046C197D098E0997
:100B30009F096E3E72408105910578F3DF91CF9158
:100B4000FF90EF90DF90CF90BF90AF909F908F90ED
:100B50000895E9508EEE92E0E33038F4F0E0EE0FC5
:100B6000FF1FED5BFD4F808191816C01990FEE08B5
:100B7000FF088981882321F060E08A810E94B10307
:100B80000E943D044B015C01C114D104E104F10455
:100B9000B9F00E943D04681979098A099B09683EE9
:100BA00073408105910580F381E0C81AD108E108FE
:100BB000F10828EE820E23E0921EA11CB11CE4CFA6
:100BC0008981882309F4BACF61E08A81DF91CF91CE
:100BD000FF90EF90DF90CF90BF90AF909F908F905D
:100BE0000C94B1034F925F926F927F928F929F927B
:100BF000AF92BF92CF92DF92EF92FF920F931F932B
:100C0000CF93DF938C017B01EA01FC018185928502
:100C10000E942C058823D9F1B701F80181859285BE
:100C20000E940D0540E06EEBF801818592850E94DF
:100C3000D9046E015E01F9E0AF0EB11C7E01F8012E
:100C40008184928488E0682E712C512C4424439432
:100C5000C4010E94860481115428440CF1E06F1AEB
:100C60007108B1F7F70151927F01AE16BF0639F74F
:100C7000F801818592850E942C05813041F4F601AE
:100C800081916F01811105C0EE15FF05C1F790E05C
:100C900008C068E0CE010E946F0491E02885281307
:100CA000F6CF892FDF91CF911F910F91FF90EF9099
:100CB000DF90CF90BF90AF909F908F907F906F907C
:100CC0005F904F9008950F931F93CF93DF9300D0C1
:100CD00000D000D0CDB7DEB78B01AE014F5F5F4FC4
:100CE0000E94F20520E834EE882361F12A8130E089
:100CF000322F2227330F330F330F898148E0849F2F
:100D0000C0011124282B392BF80180818031D1F4C6
:100D100068856623B9F070E08F81AB01481B5109EB
:100D2000CA019695982F8827979587950E94C82184
:100D30006052710953E0220F331F5A95E1F7207872
:100D4000260F371FC90129960FB6F894DEBF0FBED4
:100D5000CDBFDF91CF911F910F910895109246075B
:100D6000109221070895FC0183818770806183833D
:100D700084818F718064848370876783CF01089535
:100D8000CF93C82F8CEF95E00E94600380917A008A
:100D90008F7780937A0020916000CF3F09F434C0B0
:100DA00034E0C39FC00111248072C770C860C82B93
:100DB00088E10FB6F894A895809360000FBEC093A9
:100DC00060008091600080658093600083B7817FC0
:100DD000846083BFF89483B7816083BF78948895DB
:100DE00083B78E7F83BFF894A89580916000886157
:100DF0008093600020936000789480917A008068EE
:100E000080937A00CF9108950FB6F894A8958091B9
:100E10006000886180936000109260000FBED6CFA2
:100E2000FC0101900020E9F73197AF01481B590BF5
:100E3000BC018CEF95E00C947D028F929F92AF9253
:100E4000BF920F931F93CF93DF93CDB7DEB7A197D8
:100E50000FB6F894DEBF0FBECDBF19A2423008F422
:100E60004AE08E010F5D1F4F842E912CB12CA12CD6
:100E7000A50194010E94DC21E62FB901CA01EA30E4
:100E8000F4F4E05DD801EE938D01232B242B252B68
:100E900079F790E080E0109719F0CD010E941007DB
:100EA000A1960FB6F894DEBF0FBECDBFDF91CF91F4
:100EB0001F910F91BF90AF909F908F900895E95C24
:100EC000E1CFCF92DF92EF92FF92CF93DF936B014E
:100ED0007C016DE28CEF95E00E941303EC01662724
:100EE0007727CB016C197D098E099F094AE00E9482
:100EF0001D078C0F9D1FDF91CF91FF90EF90DF902A
:100F0000CF900895009711F00C94100790E080E0C6
:100F10000895CF93DF930E941007EC018BE592E0D8
:100F20000E9410078C0F9D1FDF91CF910895CF93E2
:100F3000DF93BC01990F880B990B97FF0CC00E949F
:100F40006107EC018BE592E00E9410078C0F9D1F5A
:100F5000DF91CF9108954AE00E941D07F2CFBC01B6
:100F6000990F880B990B97FD0C9461074AE00C943C
:100F70001D07BF92CF92DF92EF92FF920F931F93C4
:100F8000CF93DF93EC01B62EC72E8D85811105C05E
:100F9000CE010E942C0581110EC01B861D861C8669
:100FA00080E0DF91CF911F910F91FF90EF90DF9044
:100FB000CF90BF90089540E060EFCE010E94D90429
:100FC00001E0E12CD12C11E0CE010E948604F82E24
:100FD000CE010E94860491E0F91218C0813099F583
:100FE0001134D8F2DB86D11002C081E08D878B816D
:100FF000882399F22396EB2DFC2DCF010896299199
:101000002193E817F907D9F781E0CBCFEE2DF0E077
:10101000F8120FC08B851817A0F4DE01AE0FBF1FAA
:1010200013968C91802379F4F12C193008F41C87E5
:10103000D12EEC0FFD1F8381902F90958923838300
:101040000AC08113F1CFFE01EE0DF11D8381802BCB
:101050008383FF24F3946F2DCE010E94AA041F5FA7
:10106000000F11F4E39401E087E08E1508F0ACCF97
:10107000B7CFDF92EF92FF920F931F93CF93DF933F
:101080007C018B01D42EDC011996ED91FC91138625
:10109000158614861286118610861782168215828E
:1010A00014821382C0E0B801F701818592850E9405
:1010B000B907D82F882329F0DC1629F0CF5FDC167A
:1010C00090F7D0E009C067E0C8010E946F04D80122
:1010D00017969C918913F2CF8D2FDF91CF911F919D
:1010E0000F91FF90EF90DF9008950F931F93CF9390
:1010F000DF9300D000D01F921F92CDB7DEB78C01D6
:10110000462FBE016F5F7F4F0E94390881110FC0CB
:101110006AE979E984E493EC28960FB6F894DEBF87
:101120000FBECDBFDF91CF911F910F910895BE01EA
:101130006F5F7F4FC8010E946306813824EE9207DB
:101140003CF3BC01990F880B990B0E94521F26E6B5
:1011500036E646E65CE30E94B11F20E030E040E066
:1011600052E40E94AA20D8CF0F931F93CF93DF930E
:1011700000D000D01F921F92CDB7DEB78C01462F52
:10118000BE016F5F7F4F0E94390881110FC060E080
:1011900070E08EEF92EC28960FB6F894DEBF0FBE8B
:1011A000CDBFDF91CF911F910F910895BE016F5F69
:1011B0007F4FC8010E946306813824EE92073CF3FA
:1011C000BC01990F880B990B0E94521F20E030E060
:1011D00040E05CE30E94B11FDECFEF92FF920F93DD
:1011E0001F93CF93DF93CDB7DEB761970FB6F89417
:1011F000DEBF0FBECDBF8C01DC011996ED91FC91D5
:101200001A97138615861486128611861086178201
:10121000168215821482138217961C9217971896BD
:101220001C92FF24F394BE01665F7F4FF801818515
:1012300092850E94B907882309F472C067E0CE0145
:101240000A960E946F0499898913EDCFD8011796E9
:101250008C9117978F5F17968C938A85883231F01F
:1012600008F045C0803111F08232E9F6F80180853E
:101270008F5F80878081811124C0818592850E9443
:101280002C05BE01665F7F4FD80119968D919C9108
:101290000E940D0540E064EBF801818592850E9473
:1012A000D904D80119968D919C910E948604E82E4C
:1012B000F801818592850E942C05E11002C0D801B9
:1012C000FC928A858031F1F0AE014F5F5F4FBE0125
:1012D000665F7F4FC8010E94F205882331F08D813F
:1012E0008F33D1F058F48F31C9F080E00EC08B33CA
:1012F00009F4BCCF823409F096CFB8CF8F3521F0F6
:101300008F3799F78CE001C08BE0F8019381981733
:1013100008F089CF838387CF8AE0F7CF89E0F5CFC4
:1013200061960FB6F894DEBF0FBECDBFDF91CF91AF
:101330001F910F91FF90EF9008954F925F926F92DF
:101340007F928F929F92AF92BF92CF92DF92EF9255
:10135000FF926B017C01AC019B010E94C321882399
:10136000C1F08EE592E00E9410077C018BE592E0CF
:101370000E9410078E0D9F1DFF90EF90DF90CF9081
:10138000BF90AF909F908F907F906F905F904F90A5
:10139000089546015701E894B7F82FEF3FEF4FE764
:1013A0005FE7C501B4010E94C32181110DC02FEF79
:1013B0003FEF4FE75FE7C501B4010E944B1F1816CE
:1013C0001CF482E692E0CFCF2FEF3FEF4FE75FE4D0
:1013D000C701B6010E94BE2118161CF486E692E0F1
:1013E000C2CF2FEF3FEF4FE75FECC701B6010E947E
:1013F0004B1F87FDF3CF20E030E0A901C701B60104
:101400000E944B1FB12CA12C87FF0AC06DE28CEF0C
:1014100095E00E9413035C01F7FAF094F7F8F0945A
:101420002AE037ED43EA5BE3C701B6010E94AA2038
:101430002B013C010E948F216B017C010E94501FF7
:101440009B01AC01C301B2010E94A9202B013C0108
:101450004AE0C701B6010E941D077C01EA0CFB1C93
:101460006EE28CEF95E00E941303E80EF91E20E077
:1014700030E040E251E4C301B2010E94B11F2B01F0
:101480003C010E948F214B01B12CA12C4AE0C501E7
:10149000B4010E941D07E80EF91EC501B4010E94A7
:1014A000501F9B01AC01C301B2010E94A92020E0A2
:1014B00030E040E251E40E94B11F0E948F2190E091
:1014C00080E04AE00E941D07E80EF91E4FCFCF9240
:1014D000DF92FF920F931F93CF93DF930BED15E0F5
:1014E000C6E1D0E0FC2EFE01EA53FC4F2491FE0140
:1014F000E058FC4F8491882399F090E0880F991F61
:10150000FC01EE5EFC4FA591B491FC01EA59FC4F41
:10151000859194918FB7F894EC91E22BEC938FBF67
:101520006E0188E7C81A8EEFD80AC6010E947F2094
:1015300061E0811160E08F2D0E94B103C6010E941D
:101540007F2091E0811101C090E0F80191938F011B
:101550002196CE32D10509F0C5CF82E497E00E94F2
:10156000ED088DE197E0DF91CF911F910F91FF90F2
:10157000DF90CF900C94ED08FC01248122952695F4
:101580002770213039F4878191E0811101C090E00A
:10159000892F0895211104C007960E94EF18F4CFF7
:1015A00080E0F2CF0F931F93CF93DF938C0180E005
:1015B0006115710551F0EB0109900020E9F72197C1
:1015C0008C2F861B8A3108F089E1F801C381C7702E
:1015D000F8E08F9FC0011124C82BF801C3838481D8
:1015E0008F718483C695C695C695CA3108F0C9E146
:1015F000D0E0AE01C80107960E942322C00FD11F80
:101600001F82C801DF91CF911F910F9108950F9311
:101610001F93CF93DF93EC018C8182958695877021
:10162000D9F44B814695469546954A3108F049E1F3
:1016300050E0BE01695F7F4F82EB94E00E9423225D
:10164000EB81E695E695E695EA3108F0E9E1F0E010
:10165000EE54FB4F108209C08130E1F58F814AE0E2
:1016600062EB74E090E00E945B198C8122EB34E025
:101670003F932F939D811F929F9384FB992790F90D
:101680001F929F9387701F928F938E811F928F93CB
:1016900089811F928F9385E592E09F938F931F928C
:1016A00088E78F938AE394E09F938F930E94CE19EB
:1016B0008AE394E00E9482078DB79EB742960FB6E8
:1016C000F8949EBF0FBE8DBF81E0DF91CF911F9137
:1016D0000F910895823031F44AE062EB74E08F811B
:1016E0009885C1CF833041F44AE062EB74E08F818A
:1016F00098850E94B419B9CF843051F46F817885F0
:1017000089859A852AE042EB54E00E946619ADCFA4
:10171000853051F46F81788589859A852AE042EB7E
:1017200054E00E949219A1CF20E0873071F42B85FC
:10173000293008F028E06F81788589859A8502EB49
:1017400014E042E00E94D11890CFEB81E695E69537
:10175000E695EA3108F0E9E12E1738F5E22FF0E0DE
:10176000AF01440F551FDA01AE54BB4FEC0FFD1F04
:101770008781082E000C990B34E0959587953A9552
:10178000E1F78F708A3068F4805D8C934D545B4F25
:1017900087818F708A3038F4805DFA0180832F5FF3
:1017A000D4CF895CF2CF895CF8CFF0E0EE0FFF1F59
:1017B0004FCFFC012281211102C00C94070B80E065
:1017C0000895FC0111829481907F91609483CF01F0
:1017D0000C94D90B109268071092690780936D07DB
:1017E00060936C0790916B07907E90936B078F3F8F
:1017F00011F44AE652E0BA0187E697E00E94D20A65
:101800000C94D90BE7E6F7E0118212828683658398
:101810008481807E826084836DE572E0CF010E94C6
:10182000D20A0C94D90BAF92BF92CF92DF92EF9273
:10183000FF920F931F93CF93DF93CDB7DEB76997D6
:101840000FB6F894DEBF0FBECDBF1092680710929E
:1018500069071FEF10936D078BE080936C078091F1
:101860006B07807E836080936B0760E772E087E69A
:1018700097E00E94D20A0E94D90B1092680710923A
:10188000690710936D078CE080936C0780916B075C
:10189000807E836080936B076AE872E087E697E05A
:1018A0000E94D20A0E94D90B01E010E02EE8E22E3D
:1018B00022E0F22ECE0101966C011F930F93FF924E
:1018C000EF92DF92CF920E943222A60163E070E095
:1018D000802F0E94EA0B0F5F1F4F0F900F900F9009
:1018E0000F900F900F900931110539F74FE952E031
:1018F00063E070E089E10E94EA0B4EEA52E063E0A7
:1019000070E08AE10E94EA0B47EB52E063E070E08E
:101910008BE10E94EA0B46EC52E064E070E08CE15F
:101920000E94EA0B8091490790E09093D105809343
:10193000D00589ED92E00E9482078091D0059091B8
:10194000D1050E9497070DE110E093EFA92E92E0D8
:10195000B92E78019DE1E91AF1088091D0059091A6
:10196000D1054C96801791071CF10D32110501F13C
:10197000FF92EF92BF92AF92DF92CF920E943222FB
:10198000A60166E070E0802F0E94EA0B80914B0573
:1019900090914C05019690934C0580934B050F5FF9
:1019A0001F4F0F900F900F900F900F900F90D1CF6F
:1019B0008091240790E090938F0580938E058EE0B0
:1019C00093E00E94820780918E0590918F050E947E
:1019D000970700914B0510914C05035E1F4F85E260
:1019E000A82E83E0B82E20914B0530914C058091B4
:1019F0008E0590918F054D96820F931F081719073A
:101A0000FCF4245D3F4F20173107D4F0FF92EF9292
:101A1000BF92AF92DF92CF920E943222A60166E07F
:101A200070E0802F0E94EA0B8FEFE81AF80A0F5F30
:101A30001F4F0F900F900F900F900F900F90D3CFDC
:101A400063E08CE10E94020C69960FB6F894DEBF49
:101A50000FBECDBFDF91CF911F910F91FF90EF90FF
:101A6000DF90CF90BF90AF9008954DE552E061E1D7
:101A700070E08FEF0E94EA0B0C94130CCF92DF9270
:101A8000EF92FF920F931F93CF93DF93CDB7DEB703
:101A9000C857D1090FB6F894DEBF0FBECDBFCE0137
:101AA0008C579F4FFC01C190D1907F011F9289E01C
:101AB0008F931F9283E08F9386E492E09F938F939E
:101AC0001F9288E78F938E010F5F1F4F1F930F9315
:101AD0000E94CE19C8010E9482070E9462044AE057
:101AE0000E941D0783E293E00E9482079701A601EE
:101AF00068E770E0C8010E940B1A8AE0E8968FAF91
:101B0000E897E9961FAEE997C8010E9482078CEF1B
:101B100095E00E9460030FB6F894DEBF0FBECDBF04
:101B2000C858DF4F0FB6F894DEBF0FBECDBFDF91B0
:101B3000CF911F910F91FF90EF90DF90CF9008957C
:101B40008F929F92AF92BF92CF92DF92EF92FF92CD
:101B5000CF93DF936B017C011F928FEF8F931F92C6
:101B60008F931F928F931F928F931F921F92FF92BA
:101B7000EF92DF926F9382E694E09F938F930E949F
:101B80003E0D8DB79EB740960FB6F8949EBF0FBE20
:101B90008DBFC114D104E104F10409F452C09FE0E7
:101BA000C90ED11CE11CF11CC1E0D0E080911202F1
:101BB0008F3F31F480E1C816D104E104F10440F50F
:101BC0008091120280911202CFEF8F3F11F0C091ED
:101BD00012028FEF809312028C2F0C2E000C990BA7
:101BE0009F93CF9382E594E09F938F930E943E0D45
:101BF0000F900F900F900F908C2FDF91CF91FF904F
:101C0000EF90DF90CF90BF90AF909F908F9008950E
:101C100089E094E0980F4E0102C0880C991C9A95B7
:101C2000E2F7B12CA12CC814D904EA04FB0438F063
:101C30000E94C006C818D908EA08FB08B7CF81502F
:101C4000E8CF8FEF0E94C006BDCFEF92FF921F93A7
:101C5000CF93DF93CDB7DEB76B970FB6F894DEBFA7
:101C60000FBECDBF80914A05882361F01F928F93EC
:101C700088E692E09F938F930E943E0D0F900F9005
:101C80000F900F9080914A058F5F80934A05A89529
:101C90008CEF95E00E94DB02892B09F4E0C08CEF09
:101CA00095E00E94B90290914905933608F001C170
:101CB000E92FF0E0EB51FB4F8A3009F0F5C01082BC
:101CC0001092AA071092A9078091AD078F7E80938A
:101CD000AD07AE01465E5F4F60E473E085EE94E0D1
:101CE0000E94341947E0E42EF12C10E0009709F42B
:101CF000AAC1153009F486C10E94EF181230D1F044
:101D000078F41130A1F08093AB07AE01465E5F4FCF
:101D100060E473E090E080E00E9434191F5FE6CF3A
:101D2000133091F0143079F78093AE07EECF8093A3
:101D3000AF07EBCF7C018091AD07887F9E2D977018
:101D4000892B8093AD07E1CF2091AD07277F41E03C
:101D500050E0892B11F450E040E0CA0133E0880FD5
:101D6000991F3A95E1F7822BECCF913614F09755F5
:101D700058C1975356C1213614F0275559C12753DE
:101D800057C14091AC0747708A3108F089E128E0DB
:101D9000829FC0011124482B4093AC078091AD076E
:101DA0008F71806C8093AD074695469546954A3174
:101DB00008F049E150E0BE016F5F7F4F80EB97E094
:101DC0000E941A221092490581E2E9EAF7E0A8E8A8
:101DD000B7E001900D928A95E1F710918A071111F1
:101DE0003EC080918C0783FF17C091E2E8E8F7E0DE
:101DF000A7E6B7E001900D929A95E1F7877E8061A2
:101E000080936B0710926807809189078093690718
:101E100087E697E00E94070B80918C07982F9770B8
:101E2000933009F0EAC090918D07923009F044C0D8
:101E300010926807109269078FEF80936D07909357
:101E40006C0780916B07807E836080936B076AE6E6
:101E500072E087E697E00E94D20A0E94070B809109
:101E60004A05815080934A056B960FB6F894DEBF01
:101E70000FBECDBFDF91CF911F91FF90EF900895DE
:101E800001900020E9F7E81BE250E80FF92FF11D5F
:101E900020812D3011F02A3009F41082BC0189EA2A
:101EA00097E00E94D20A8ECF80839F5F909349056E
:101EB000EFCE10924905ECCEF0908907F11071C079
:101EC0009D3059F488E198E00FB6F894A895809376
:101ED00060000FBE90936000FFCF9B3109F4BFCF2D
:101EE000963099F490918F0781E0992319F09D34F1
:101EF00009F080E08093D70541E050E063E071E0B5
:101F000087ED95E00E948720AACF933119F40E94B3
:101F1000350DA5CF923111F50E9462041092680729
:101F2000109269072FEF20936D0726E120936C072D
:101F300020916A072770206220936A0723EA209382
:101F40006B0760936E0770936F0780937007909391
:101F5000710787E697E00E94D90B81CF913009F095
:101F60007ECF20E030E0232B09F479CF829586954F
:101F70008770853059F460918F0770919007809138
:101F80009107909192070E94000069CF811105C0CE
:101F90008FE897E00E940D19F6CF60E070E0CB016A
:101FA000F2CF9A3109F05BCF8295869587708130A8
:101FB000E1F410918F0710926807F09269078FEF94
:101FC00080936D078BE180936C0780916A0787701F
:101FD000886080936A0783E280936B0781E0123008
:101FE00008F480E080936E07B4CF8111E4CF8FE8CE
:101FF00097E00E94EF18182FDECF88E897E00E9444
:10200000D0122DCFFC0124E0E216F10409F038CF04
:1020100080E09081992309F4B4CE9A330CF0A5CED8
:1020200090539295907F21812A330CF0A4CE2053B7
:10203000A1E0B0E0AC0FBD1FA80FB11D920F9C93A3
:102040008F5F3296E6CF8091AC078770886080936F
:10205000AC078091AD078F7180628093AD071092BD
:10206000B00710924905153009F4AECEF8CEAF9204
:10207000BF92CF92DF92EF92FF920F931F93CF9375
:10208000DF938091D605811163C0C1E008E812E0BA
:1020900082E493E00E948907C093C00670E060E08C
:1020A0008AEB96E00E94B3060E94E10B88E593E07C
:1020B0000E94890762E08C2F0E94020C80914D05DE
:1020C000882351F01F928F931F930F930E943E0D10
:1020D0000F900F900F900F9080914D058F5F809320
:1020E0004D050E9462046B017C0180918C07876022
:1020F00080938C07D0E00E9462046C197D098E09E0
:102100009F09683C71058105910578F4D1110DC0D6
:102110000E94250E80918C078770813061F7D1E095
:1021200080918D07823031F7E6CF80914D05815047
:1021300080934D05CF5FCD3109F0AACF6091D905CD
:102140007091DA0589E996E00E94B3060E94E10BDE
:102150000E9462040091D2051091D3052091D4050C
:102160003091D505011511052105310599F46093CC
:10217000D2057093D3058093D4059093D505DF9154
:10218000CF911F910F91FF90EF90DF90CF90BF9074
:10219000AF9008956B017C01C01AD10AE20AF30ADC
:1021A00097018601013315472105310540F36093FE
:1021B000D2057093D3058093D4059093D50582E41E
:1021C00097E00E94640581E893E00E94890780916E
:1021D000490790E09093D1058093D00584E193E086
:1021E0000E9482078091D0059091D1050E949707A7
:1021F000E0914507E9506EEE72E0E33038F4F0E02C
:10220000EE0FFF1FED5BFD4F60817181072E000C0B
:10221000880B990B0E94A00D00E915E0D0E0C0E00A
:10222000AA24A3948091D0059091D105C817D9070D
:102230000CF07EC0C031D10509F47AC0BC2E80916B
:10224000D7056C2F882309F46EC082E497E00E94C2
:10225000B40820E030E040E251E40E94B11F0E9447
:102260008821072E000C880B990B0E94521F20E03A
:1022700030E040E251E40E9416216B017C018FE9BD
:1022800093E00E948207CE010E94AF0788EA93E0A4
:102290000E948207C701B6010E949D09A70196010D
:1022A000F80160817181828193810E944B1F882394
:1022B000B1F120E030E04EEF52ECC701B6010E94D0
:1022C0004B1F882361F120E030E04AEA52E4C70165
:1022D000B6010E944B1F882311F18DE18B0D809375
:1022E00002078091FF06877088628093FF068091C5
:1022F0000007806E80930007C0920307D092040706
:10230000E0920507F0920607A09207078CEF96E08F
:102310000E94E10BF801C082D182E282F382219611
:102320000C5F1F4F7FCF82E497E00E94750891CF2A
:102330008DE197E00E94640581EB93E00E9489079C
:102340008091240790E090938F0580938E0584E11F
:1023500093E00E94820780918E0590918F050E94E4
:102360009707E0912007E9506EEE72E0E33038F411
:10237000F0E0EE0FFF1FED5BFD4F60817181072ED6
:10238000000C880B990B0E94A00D0EE415E0D0E024
:10239000C0E0BB24B39480918E0590918F05C8173F
:1023A000D9070CF0ECCEC031D10509F4E8CEAC2E43
:1023B0008091D7056C2F882309F470C08DE197E0D8
:1023C0000E94B40820E030E040E251E40E94B11FD6
:1023D0000E948821072E000C880B990B0E94521F27
:1023E00020E030E040E251E40E9416216B017C01C4
:1023F0008FE993E00E948207CE010E94AF0788EA2E
:1024000093E00E948207C701B6010E949D09A701BF
:102410009601F80160817181828193810E944B1F36
:102420008823C1F120E030E04EEF52ECC701B60145
:102430000E944B1F882371F120E030E04AEA52E409
:10244000C701B6010E944B1F882321F18091D0055E
:10245000835E8A0D809302078091FF0687708862F1
:102460008093FF0680910007806E80930007C092E2
:102470000307D0920407E0920507F0920607B09296
:1024800007078CEF96E00E94E10BF801C082D18231
:10249000E282F38221960C5F1F4F7DCF8DE197E0A2
:1024A0000E9475088FCF8F929F92AF92BF92CF926A
:1024B000DF92EF92FF924B015C0180914D058823E2
:1024C00061F01F928F9388E792E09F938F930E9411
:1024D0003E0D0F900F900F900F9080914D058F5FE4
:1024E00080934D050E9462046B017C010E9462048E
:1024F0006C197D098E099F09681579058A059B0568
:1025000018F40E94250EF2CF80914D0581508093E2
:102510004D05FF90EF90DF90CF90BF90AF909F90D0
:102520008F900895EF92FF920F931F93CF93DF93B5
:10253000C3EFD5E003E112E08A91882321F1F8018D
:10254000E6A4F7A461E085E18E0D0E94B103C70106
:10255000992760E083569E4F0E949720E092E10603
:1025600070E060E08BED96E00E94B3060E94E10B04
:1025700018826091D9057091DA05072E000C880B3E
:10258000990B0E94531202501109F5E0CB3DDF0771
:1025900099F6DF91CF911F910F91FF90EF900895E1
:1025A000AF92BF92CF92DF92EF92FF920F931F9361
:1025B000CF93DF93EC018091D605811107C08CEC9D
:1025C00093E00E94890781E08093D6051E818D816A
:1025D000823091F4193180F4CE010E94BC0A1B5E56
:1025E0008111CFC061E0812F0E94B103EE81F0E044
:1025F000E552FA4F1082CFC0193109F00FC1CE0158
:102600000E94BC0A882309F406C18AE18093E1068E
:1026100070E060E08BED96E00E94B3060E94E10B53
:102620008BE18093E10670E060E08BED96E00E9424
:10263000B3060E94E10B0E94921260E088E20E94C1
:10264000B10311E01093DD056091D9057091DA05B1
:10265000072E000C880B990B0E94531260E082E257
:102660000E94B1031093E0056091D9057091DA05DD
:10267000072E000C880B990B0E94531260E080E239
:102680000E94B1031093EE056091D9057091DA05AF
:10269000072E000C880B990B0E94531260E086E213
:1026A0000E94B1031093EF056091D9057091DA058E
:1026B000072E000C880B990B0E94531260E08AE2EF
:1026C0000E94B1031093F0056091D9057091DA056D
:1026D000072E000C880B990B0E94531260E089E1D1
:1026E0000E94B1031093F1056091D9057091DA054C
:1026F000072E000C880B990B0E94531283E18093E4
:10270000E10661E070E08BED96E00E94B3060E9466
:10271000E10B8DE08093E10661E070E08BED96E0E7
:102720000E94B3060E94E10B8BE08093E10661E01A
:1027300070E08BED96E00E94B3060E94E10B81E110
:102740008093E10661E070E08BED96E00E94B306B5
:102750000E94E10B85E18093E10661E070E08BED82
:1027600096E00E94B3060E94E10B84E08093E106AC
:1027700061E070E08BED96E00E94B3060E94E10BF1
:102780002AC060E0812F0E94B103EE81F0E0E552A3
:10279000FA4F81E08083CE010E94BC0A2E8130E096
:1027A000682FC90183569E4F0E94972084EF93E0C3
:1027B0000E9482076E8170E090E080E04AE00E9413
:1027C0001D0780E194E00E948207CE010E94BC0AAE
:1027D00090E00E9497078D81833091F48E818C3137
:1027E00079F4CE0107960E94EF1825E0AC01249FF2
:1027F000C001259F900D11249093DA058093D9058F
:10280000DF91CF911F910F91FF90EF90DF90CF90CC
:10281000BF90AF9008950E949212DDCF1A3109F057
:1028200042C0CE010E94BC0A8823A9F30E949212E2
:1028300089E18093E10670E060E08BED96E00E9414
:10284000B3060E94E10B8BE18093E10670E060E04B
:102850008BED96E00E94B3060E94E10B60E087E2F8
:102860000E94B10311E01093DB056091D9057091CE
:10287000DA05072E000C880B990B0E94531260E0BA
:1028800086E10E94B1031093DC0582E18093E106AA
:1028900061E070E08BED96E00E94B3060E94E10BD0
:1028A0001093E10665CF1B3109F095CFCE010E9450
:1028B000BC0A882309F4AFCF89E18093E10670E078
:1028C00060E08BED96E00E94B3060E94E10B8AE186
:1028D0008093E10670E060E08BED96E00E94B30625
:1028E0000E94E10B0BED15E083E1E82E82E0F82E6B
:1028F00093EFC92E95E0D92EAA24A394F8018191D3
:102900008F0181111EC0F701B08060E085E18B0D61
:102910000E94B103F8013197A082B092E10661E014
:1029200070E08BED96E00E94B3060E94E10B60918F
:10293000D9057091DA05072E000C880B990B0E94BF
:102940005312F2E0EF0EF11CC016D106B9F643CFD8
:102950001F920F920FB60F9211240BB60F922F9366
:102960003F934F935F936F937F938F939F93AF9317
:10297000BF93EF93FF938CEF95E00E94F102FF91DC
:10298000EF91BF91AF919F918F917F916F915F91E7
:102990004F913F912F910F900BBE0F900FBE0F9054
:1029A0001F9018951F920F920FB60F9211240BB61D
:1029B0000F922F938F939F93EF93FF93E0910C06C9
:1029C000F0910D068081E0911206F091130682FDD0
:1029D0001DC09081809115068F5F8F732091160620
:1029E000821741F0E0911506F0E0E450FA4F958F20
:1029F00080931506FF91EF919F918F912F910F90EA
:102A00000BBE0F900FBE0F901F9018958081F2CFD4
:102A10001F920F920FB60F9211242F933F938F9313
:102A20009F93AF93BF938091F4059091F505A0918A
:102A3000F605B091F7053091F30523E0230F2D370C
:102A400058F50196A11DB11D2093F3058093F4055F
:102A50009093F505A093F605B093F7058091F805DE
:102A60009091F905A091FA05B091FB050196A11D81
:102A7000B11D8093F8059093F905A093FA05B093E2
:102A8000FB05BF91AF919F918F913F912F910F9037
:102A90000FBE0F901F90189526E8230F0296A11DD8
:102AA000B11DD2CF1F920F920FB60F9211240BB609
:102AB0000F922F933F934F935F936F937F938F93D7
:102AC0009F93AF93BF93EF93FF93E0911002F09128
:102AD00011021995FF91EF91BF91AF919F918F9145
:102AE0007F916F915F914F913F912F910F900BBE0E
:102AF0000F900FBE0F901F9018951F920F920FB658
:102B00000F9211240BB60F922F933F934F935F9325
:102B10006F937F938F939F93AF93BF93EF93FF93A5
:102B2000E0910E02F0910F021995FF91EF91BF9184
:102B3000AF919F918F917F916F915F914F913F9155
:102B40002F910F900BBE0F900FBE0F901F901895F6
:102B50001F920F920FB60F9211240BB60F922F9364
:102B60003F934F935F936F937F938F939F93AF9315
:102B7000BF93EF93FF93E0910402F0910502199542
:102B8000FF91EF91BF91AF919F918F917F916F9145
:102B90005F914F913F912F910F900BBE0F900FBE01
:102BA0000F901F9018951F920F920FB60F9211243D
:102BB0000BB60F922F933F934F935F936F937F9337
:102BC0008F939F93AF93BF93EF93FF93E091020294
:102BD000F09103021995FF91EF91BF91AF919F91F1
:102BE0008F917F916F915F914F913F912F910F90B6
:102BF0000BBE0F900FBE0F901F9018951F920F9253
:102C00000FB60F9211240BB60F922F933F934F9351
:102C10005F936F937F938F939F93AF93BF93EF9344
:102C2000FF93E0910C02F0910D021995FF91EF9145
:102C3000BF91AF919F918F917F916F915F914F91D4
:102C40003F912F910F900BBE0F900FBE0F901F90D2
:102C500018951F920F920FB60F9211240BB60F9278
:102C60002F933F934F935F936F937F938F939F9394
:102C7000AF93BF93EF93FF93E0910A02F0910B02A1
:102C80001995FF91EF91BF91AF919F918F917F9196
:102C90006F915F914F913F912F910F900BBE0F90CD
:102CA0000FBE0F901F9018951F920F920FB60F92A4
:102CB00011240BB60F922F933F934F935F936F9313
:102CC0007F938F939F93AF93BF93EF93FF93E09185
:102CD0000802F09109021995FF91EF91BF91AF9110
:102CE0009F918F917F916F915F914F913F912F9124
:102CF0000F900BBE0F900FBE0F901F9018951F9254
:102D00000F920FB60F9211240BB60F922F933F9391
:102D10004F935F936F937F938F939F93AF93BF93E3
:102D2000EF93FF93E0910602F09107021995FF914E
:102D3000EF91BF91AF919F918F917F916F915F9133
:102D40004F913F912F910F900BBE0F900FBE0F90A0
:102D50001F9018951F920F920FB60F9211240F908B
:102D60000FBE0F901F9018950F931F93CF93DF9373
:102D7000DC0170E09B012A533C4FF90144916058FB
:102D80007C4FFB0184918823C9F090E0880F991F44
:102D9000FC01EE5EFC4FC591D491FC01EA59FC4F59
:102DA000059114915FB7F8949881842F80959823AA
:102DB0009883F8019081892380835FBFF901249172
:102DC0002C93FB016491E62FF0E0EE0FFF1FE45D12
:102DD000FC4F8591949112969C938E9311971B961C
:102DE0001C921B971D961C921D971C961C921C975B
:102DF0001A961C921A9719961C92199718961C925B
:102E0000189717961C92179716961C921697159658
:102E10001C92159714961C92149713961C92DF918E
:102E2000CF911F910F910895CF93DF93FC011082F2
:102E300011821282148215821682DC0117968AE1B1
:102E4000ED0119928A95E9F782E08383DF91CF91B2
:102E50000895CF93DF93ECEFF5E01382128288EEB2
:102E600093E0A0E0B0E084839583A683B7838DE4EC
:102E700092E09183808385EC90E09587848784EC51
:102E800090E09787868780EC90E0918B808B81EC37
:102E900090E0938B828B82EC90E0958B848B86EC18
:102EA00090E0978B868B118E128E138E148E89EA8A
:102EB00097E00E94141788E897E00E94141787E6AD
:102EC00097E00E94141765E089E597E00E94B41628
:102ED000E2E4F7E0168A158A118289E597E0928785
:102EE0008187178210861082D9E0D383C1E0C48322
:102EF000C583C68366E084E397E00E94B416EDE1E3
:102F0000F7E0168A158A118284E397E09287818719
:102F1000178210861082D383C483C583C6838CEF47
:102F200096E00E941417ECEFF6E0168215828BED06
:102F300096E00E941417EBEDF6E01682C2E0C5831E
:102F40008AEB96E00E941417EAEBF6E01682C5833E
:102F500089E996E00E941417E9E9F6E08CE186839E
:102F600083E08583DF91CF910895789484B5826062
:102F700084BD84B5816084BD85B5826085BD85B51D
:102F8000816085BD80916E00816080936E0010929B
:102F90008100809181008260809381008091810016
:102FA00081608093810080918000816080938000A7
:102FB0008091B10084608093B1008091B000816005
:102FC0008093B00080919100826080939100809105
:102FD0009100816080939100809190008160809346
:102FE00090008091A10082608093A1008091A10057
:102FF00081608093A1008091A00081608093A000F7
:103000008091210182608093210180912101816062
:103010008093210180912001816080932001809123
:103020007A00846080937A0080917A008260809335
:103030007A0080917A00816080937A0080917A0092
:10304000806880937A001092C100A89580E090E09B
:10305000892B11F00E940000E0910C06F0910D0602
:1030600082E08083E0910806F09109061082E091E9
:103070000A06F0910B0690E1908310921406E091FD
:103080001006F091110686E08083E0910E06F09123
:103090000F06808180618083E0910E06F0910F061B
:1030A000808188608083E0910E06F0910F06808118
:1030B00080688083E0910E06F0910F0680818F7DFD
:1030C00080831F92CFEFCF931F929F938EED92E05C
:1030D0009F938F930E943E0D8091D8058D7F8093A2
:1030E000D80581ED92E09F938F930E943E0D0E9440
:1030F000670A41E050E063E071E087ED95E00E94EF
:103100006F201092680710926907C0936D078EE0D8
:1031100080936C0780916B07807E836080936B0740
:103120006FE174E087E697E00E94D20A0E94070BE5
:103130000E94350D84EC92E09F938F930E943E0D88
:1031400010924607109221078091D8052DB73EB7FF
:10315000265F3F4F0FB6F8943EBF0FBE2DBF81FDD7
:1031600010C081608093D80588E992E09F938F9387
:103170000E943E0D8091D80582608093D8050F9003
:103180000F908CEA92E09F938F930E943E0DA8953A
:103190000F900F900E94250E0E9437100E9480030E
:1031A000F9CFEF920F931F93CF93DF93E80134E0B1
:1031B00047FD34E1042E000C550B57FF03C0519519
:1031C00041955109E32E022F242FAE010E94461C87
:1031D000CE01DF91CF911F910F91EF900895FC01E7
:1031E00088279927E89421912032E9F3293010F0BB
:1031F0002E30C8F32B3241F02D3239F4689404C0DC
:103200000E948A19820F911D219120532A30C0F308
:103210001EF4909581959F4F08951F93FC01992767
:103220008827BC01E89411911032E9F3193010F0AD
:103230001E30C8F31B3251F01D3249F4689406C0A9
:103240000E947519610F711D811D911D11911053FF
:103250001A30B0F33EF490958095709561957F4F4C
:103260008F4F9F4F1F910895FA01A191B081009750
:1032700019F41097E1F0CD01DC01CD010D90002093
:1032800011F4C00113C0FB012191222319F0201574
:10329000D9F7F3CFFB012191201519F41E92119655
:1032A00006C02223C1F70D900020A1F7D001FA013A
:1032B000A193B0830895BB274A3031F4992322F4B7
:1032C000BDE2909581959F4F0C94B519BB272A308C
:1032D00051F4992342F4BDE29095809570956195E3
:1032E0007F4F8F4F9F4F0C949319592F482F372F93
:1032F000262F660F771F881F991F660F771F881F5D
:10330000991F620F731F841F951F660F771F881FF9
:10331000991F08957AE0979F902D879F802D910D9A
:1033200011240895BB27FA01A62F621771058105A4
:103330009105330B30FB66F0AA27660F771F881FB5
:10334000991FAA1FA21710F0A21B63953850A9F766
:10335000A05DAA3308F0A95DA19336F7B111B1932E
:103360001082CA010C94AD1EBB27FB015527AA276A
:10337000880F991FAA1FA41710F0A41B8395505102
:10338000B9F7A05DAA3308F0A95DA193009779F77A
:10339000B111B1931192CB010C94AD1E0F931F93F9
:1033A000CF93DF93CDB7DEB72E970FB6F894DEBF7D
:1033B0000FBECDBF0E891F89888D998D2EE02C837D
:1033C0001A83098397FF02C080E090E801979E83EB
:1033D0008D83AE01445E5F4F6A8D7B8DCE01019679
:1033E0000E94441A4D815E8157FD0AC02F813885A5
:1033F000421753070CF49A01020F131FF8011082B1
:103400002E960FB6F894DEBF0FBECDBFDF91CF91E1
:103410001F910F9108950F931F93CF93DF93CDB713
:10342000DEB72E970FB6F894DEBF0FBECDBF8C016E
:10343000FA018EE08C831A83098377FF02C060E073
:1034400070E8615071097E836D83A901BF01CE01CF
:1034500001960E94441A4D815E8157FD0AC02F815A
:103460003885421753070CF49A01020F131FF80115
:1034700010822E960FB6F894DEBF0FBECDBFDF913F
:10348000CF911F910F9108952F923F924F925F928B
:103490006F927F928F929F92AF92BF92CF92DF9264
:1034A000EF92FF920F931F93CF93DF9300D000D042
:1034B00000D01F921F92CDB7DEB77C013B018A017D
:1034C000FC0117821682838181FFDDC1CE01019646
:1034D0005C01F7019381F30193FD859193FF819145
:1034E0003F01882309F453C1853239F493FD859156
:1034F00093FF81913F01853229F4B70190E00E944A
:10350000BD1EE7CF912C212C312CFFE1F31538F0B3
:103510008B3211F190F4803209F1833229F137FCBA
:103520003CC020ED280F2A3050F536FE20C08AE03E
:10353000989E200D1124922E06C08D3291F080337A
:1035400071F7689430F8F30193FD859193FF8191B1
:103550003F018111DACF21C0689431F8689432F8C4
:10356000F2CF689433F8EFCF689434F8ECCFEAE008
:103570002E9E200D1124222E689435F8E4CF8E3231
:1035800029F436FC04C1689436F8DDCF8C3619F482
:10359000689437F8D8CF8836B1F2982F9F7D95542C
:1035A0009330E0F08336A1F18337C1F1833509F020
:1035B00063C02801F2E04F0E511CF801C080D18099
:1035C000692D70E036FC02C06FEF7FEFC6010E94EC
:1035D000971E4C01689437F882010AC00C5F1F4F98
:1035E000FFE3F98388248394912C6501E89437F8EC
:1035F00033FE2DC0522C8114910471F5552009F42D
:1036000068CFB70180E290E00E94BD1E5A94F6CFC9
:10361000F801808189830E5F1F4FE4CF2801F2E01B
:103620004F0E511CF801C080D180692D70E036FC2E
:1036300002C06FEF7FEFC6010E94A21E4C01820103
:10364000D5CFB70180E290E00E94BD1E2A942814D5
:10365000190409F0B0F7CECFF60137FC859137FE9B
:1036600081916F01B70190E00E94BD1E51105A94E4
:10367000F1E08F1A9108BFCF843619F0893609F02E
:1036800077C0F80137FE6BC06081718182819381C0
:103690000C5F1F4FF32DFF763F2E97FF09C09095CB
:1036A0008095709561957F4F8F4F9F4F689437F845
:1036B0002AE030E0A5010E94ED1EC82ECA188C2C0D
:1036C000432C36FE0CC0E89440F8C91440F434FE94
:1036D00005C032FC03C0F32DFE7E4F2E892C44FE24
:1036E000AAC0FE01EC0DF11D8081803309F09CC061
:1036F000242D297E422E842D8870582E43FCAAC08A
:1037000040FEA4C09C2C821418F42C0C922C981807
:1037100044FEA6C0B70180E390E00E94BD1E42FEB9
:1037200009C088E790E041FE02C088E590E0B7015B
:103730000E94BD1EC91408F49FC0CA94D12C9FEFEB
:10374000C91AD90ACA0CDB1CF60182916F01B701B4
:1037500090E00E94BD1EAC14BD04B1F74FCF608154
:103760007181072E000C880B990B0E5F1F4F92CFB3
:10377000D32CE894D4F82AE030E08537E1F1232D0A
:10378000297FD22E8F36A9F1F0F4883551F1F70157
:10379000868197812B960FB6F894DEBF0FBECDBF02
:1037A000DF91CF911F910F91FF90EF90DF90CF901D
:1037B000BF90AF909F908F907F906F905F904F9051
:1037C0003F902F900895803749F0883701F7D4FE55
:1037D00002C06894D2F820E130E00DC06894D4F8BB
:1037E000F6CF34FE03C0822F8660D82E20E132E06F
:1037F00002C028E030E0F801D7FE0FC0608171817F
:10380000828193810C5F1F4FA5010E94ED1EC82E7F
:10381000CA183D2CE89437F852CF6081718190E04E
:1038200080E00E5F1F4FF0CF42FC02C0839463CF55
:103830008394839460CF842D867809F45CCFF6CF8F
:10384000B70180E290E00E94BD1E83948214C0F311
:10385000512C5ECF522C5818821408F459CFF8CF4F
:10386000842D867809F466CF8BE241FE80E247FC26
:103870008DE2B70190E05CCFB70180E390E00E9459
:10388000BD1E9A9457CF8FEF9FEF84CF8F929F9258
:10389000AF92BF92CF92DF92EF92FF920F931F935E
:1038A000CF93DF9300D000D000D0CDB7DEB76A0150
:1038B000F22EB02E102FFBE3AF2EA01608F41BE360
:1038C0001F5F012F27E0AE014F5F5F4F0E94BF1DBA
:1038D000BC018981982F9970913009F44EC09BE208
:1038E000E1FC04C09E2D9170E0FC49C05E2D50713A
:1038F000E82FE87083FF55C084E0911101C083E098
:10390000EF2DE81B8F1508F0E0E0D6018E2F20E2A6
:103910005523C9F1992329F0D6019C93C60101963C
:103920006C0196012D5F3F4FE2FE33C08EE4D6015D
:103930008C9391E411969C93119712968C93D901D4
:103940008E2F90E281112AC0E20FF32FF11D108219
:103950008EEF9FEF29960FB6F894DEBF0FBECDBF56
:10396000DF91CF911F910F91FF90EF90DF90CF905B
:10397000BF90AF909F908F9008959DE2B7CF90E257
:10398000B5CF2D9381508111FCCFCE0ED11CE0E03C
:10399000C1CF8EE6D6018C9391E6CCCF9D9381501A
:1039A000D1CF482F447082FF3DC084E0911101C007
:1039B00083E08F1510F4EF2DE81BD6018E2F20E247
:1039C000552309F1992329F0D6019C93C60101964C
:1039D0006C0196012D5F3F4FE2FE1BC089E4D601CA
:1039E0008C938EE411968C93119786E412968C93A7
:1039F000D9018E2F90E2882309F4A6CF9D938150A0
:103A0000FACF2D9381508111FCCFCE0ED11CE0E076
:103A1000D9CF89E6D6018C938EE611968C931197B7
:103A200086E6E4CF9B0177FF02C030E020E0A1E012
:103A3000B0E0911102C0B0E0A0E0F9013196AE0F04
:103A4000BF1F8B2C912CBB2009F461C05401EFEFF8
:103A5000AE1ABE0AAA0DBB1DFA161B0619F014F009
:103A60004F2D4A1B511188C0E3FC59C07601A42F89
:103A7000B0E2A1114FC0C40ED11C992309F45BC060
:103A800040E0D6011196F60190836D01552309F4AB
:103A900048C0012F060F9A81582F507184FF03C030
:103AA000913309F4015010160CF047C0093008F0AA
:103AB00008E0EEE2FE2E5B01A01AB10885019194A8
:103AC000819491082F3F320729F4D601FC92F60128
:103AD00031966F016217730794F1021713077CF593
:103AE000DB01A21BB30BAA24A394B12CAC0EBD1E08
:103AF000AA0DBB1D11968C9121503109D60111964A
:103B000028153905F4F0F60180836D01DBCFB12C67
:103B1000A12CA0CFF701B1937F01A150AACF9111A1
:103B2000B0CFD601942F50E302C05D939150911114
:103B3000FCCFC40ED11C40E0ACCF01E0BACF80E393
:103B4000DBCF6217730731F4963388F4953311F4A1
:103B5000552369F0F6018083FD01842F90E28111E5
:103B600008C0A40FB11D1C9290E080E0F3CE81E369
:103B7000F1CF91938150F3CF911183CF8ACF283029
:103B800008F027E03327DA01990F311D87FD916096
:103B900000966105710539F432602E5F3D9330E384
:103BA0002A95E1F708959F3F30F08038710561054F
:103BB00009F03C5F3C5F3D93913008F08068911DB7
:103BC000DF93CF931F930F93FF92EF92192F987F5C
:103BD0009695E92F96959695E90FFF27EA55FE4FA2
:103BE00099273327EE24FF24A701E70105900894C5
:103BF000079428F4360FE71EF81E491F511D660F63
:103C0000771F881F991F0694A1F70590079428F441
:103C1000E70EF81E491F561FC11D770F881F991FF9
:103C2000661F0694A1F70590079428F4F80E491F23
:103C3000561FC71FD11D880F991F661F771F069437
:103C4000A1F70590079420F4490F561FC71FD81FEE
:103C5000990F661F771F881F0694A9F78491109506
:103C6000177041F0D695C79557954795F794E79407
:103C70001A95C1F7ECE4F1E068941590159135912F
:103C80006591959105907FE27395E118F10A430BD8
:103C9000560BC90BD009C0F7E10CF11E431F561F8C
:103CA000C91FD01D7EF4703311F48A95E6CFE894D5
:103CB000015030F0080F0AF40027021708F4202FF3
:103CC0002395022F7A3328F079E37D932A95E9F73B
:103CD00010C07D932A9589F6069497956795379538
:103CE00017951794E118F10A430B560BC90BD0092D
:103CF00098F023957E9173957A3308F070E37C9366
:103D00002013B8F77E9170617D9330F0839571E355
:103D10007D9370E32A95E1F71124EF90FF900F91C6
:103D20001F91CF91DF91992787FD90950895FC0110
:103D30000590615070400110D8F7809590958E0FD6
:103D40009F1F0895FC016150704001900110D8F749
:103D5000809590958E0F9F1F0895DC01FC01672FC1
:103D600071917723E1F7329704C07C916D93708352
:103D70006291AE17BF07C8F308950F931F93CF93B7
:103D8000DF93182F092FEB018B8181FD09C01FEFF5
:103D90000FEF812F902FDF91CF911F910F910895F9
:103DA00082FF14C02E813F818C819D8128173907A5
:103DB0003CF4E881F981CF010196998388831083CF
:103DC0008E819F8101969F838E83E3CFE885F9855D
:103DD000812F1995892BA1F3DACFFA01AA27283070
:103DE00051F1203181F1E8946F936E7F6E5F7F4FC8
:103DF0008F4F9F4FAF4FB1E03ED0B4E03CD0670F44
:103E0000781F891F9A1FA11D680F791F8A1F911D96
:103E1000A11D6A0F711D811D911DA11D20D009F4E6
:103E200068943F912AE0269F11243019305D319328
:103E3000DEF6CF010895462F4770405D4193B3E011
:103E40000FD0C9F7F6CF462F4F70405D4A3318F0B8
:103E5000495D31FD4052419302D0A9F7EACFB4E069
:103E6000A6959795879577956795BA95C9F7009721
:103E70006105710508959B01AC010A2E06945795C2
:103E8000479537952795BA95C9F7620F731F841F19
:103E9000951FA01D08950E948D1F08F481E00895CC
:103EA000E89409C097FB3EF49095809570956195D4
:103EB0007F4F8F4F9F4F9923A9F0F92F96E9BB278A
:103EC0009395F695879577956795B795F111F8CF06
:103ED000FAF4BB0F11F460FF1BC06F5F7F4F8F4F71
:103EE0009F4F16C0882311F096E911C0772321F067
:103EF0009EE8872F762F05C0662371F096E8862FFF
:103F000070E060E02AF09A95660F771F881FDAF755
:103F1000880F9695879597F90895990F0008550F82
:103F2000AA0BE0E8FEEF16161706E807F907C0F03F
:103F300012161306E407F50798F0621B730B840B47
:103F4000950B39F40A2661F0232B242B252B21F421
:103F500008950A2609F4A140A6958FEF811D811DC1
:103F600008950E94C41F0C9435200E94272038F029
:103F70000E942E2020F0952311F00C941E200C940A
:103F8000242011240C9469200E94462070F3959FF0
:103F9000C1F3950F50E0551F629FF001729FBB2740
:103FA000F00DB11D639FAA27F00DB11DAA1F649FDC
:103FB0006627B00DA11D661F829F2227B00DA11D8F
:103FC000621F739FB00DA11D621F839FA00D611D15
:103FD000221F749F3327A00D611D231F849F600D36
:103FE000211D822F762F6A2F11249F5750409AF05F
:103FF000F1F088234AF0EE0FFF1FBB1F661F771FEB
:10400000881F91505040A9F79E3F510580F00C94B5
:104010001E200C9469205F3FE4F3983ED4F386950C
:1040200077956795B795F795E7959F5FC1F7FE2B55
:10403000880F911D9695879597F9089597F99F6731
:1040400080E870E060E008959FEF80EC0895002420
:104050000A941616170618060906089500240A94ED
:1040600012161306140605060895092E0394000C73
:1040700011F4882352F0BB0F40F4BF2B11F460FF02
:1040800004C06F5F7F4F8F4F9F4F089557FD90582B
:10409000440F551F59F05F3F71F04795880F97FB0C
:1040A000991F61F09F3F79F08795089512161306C6
:1040B0001406551FF2CF4695F1DF08C016161706F5
:1040C0001806991FF1CF869571056105089408952A
:1040D000E894BB2766277727CB0197F90895DC0181
:1040E000CB01FC01F999FECF06C0F2BDE1BDF89A03
:1040F000319600B40D9241505040B8F70895F999A7
:10410000FECF92BD81BDF89A992780B50895DC0154
:10411000A40FB51F4150504048F0CB01840F951FAC
:104120002E910E94982041505040D0F70895262F9C
:10413000F999FECF92BD81BDF89A019700B402169D
:1041400039F01FBA20BD0FB6F894FA9AF99A0FBE4B
:1041500008955058BB27AA270E94C1200C943520EF
:104160000E94272038F00E942E2020F039F49F3F33
:1041700019F426F40C9424200EF4E095E7FB0C943B
:104180001E20E92F0E94462058F3BA1762077307D2
:104190008407950720F079F4A6F50C9468200EF4B6
:1041A000E0950B2EBA2FA02D0B01B90190010C0147
:1041B000CA01A0011124FF27591B99F0593F50F45F
:1041C000503E68F11A16F040A22F232F342F4427B7
:1041D000585FF3CF469537952795A795F0405395AF
:1041E000C9F77EF41F16BA0B620B730B840BBAF07F
:1041F0009150A1F0FF0FBB1F661F771F881FC2F7EA
:104200000EC0BA0F621F731F841F48F487957795FD
:104210006795B795F7959E3F08F0B0CF9395880FB7
:1042200008F09927EE0F9795879508950E942A2107
:104230000C9435200E942E2058F00E94272040F038
:1042400029F45F3F29F00C941E2051110C94692031
:104250000C9424200E94462068F39923B1F355233F
:1042600091F3951B550BBB27AA2762177307840789
:1042700038F09F5F5F4F220F331F441FAA1FA9F31F
:1042800035D00E2E3AF0E0E832D091505040E6950D
:10429000001CCAF72BD0FE2F29D0660F771F881F6E
:1042A000BB1F261737074807AB07B0E809F0BB0B61
:1042B000802DBF01FF2793585F4F3AF09E3F510575
:1042C00078F00C941E200C9469205F3FE4F3983E34
:1042D000D4F3869577956795B795F7959F5FC9F75E
:1042E000880F911D9695879597F90895E1E0660FDF
:1042F000771F881FBB1F621773078407BA0720F058
:10430000621B730B840BBA0BEE1F88F7E0950895C0
:104310000E948F216894B1110C94692008950E9425
:104320004E2088F09F5798F0B92F9927B751B0F0D9
:10433000E1F0660F771F881F991F1AF0BA95C9F729
:1043400014C0B13091F00E946820B1E008950C943F
:104350006820672F782F8827B85F39F0B93FCCF3F2
:10436000869577956795B395D9F73EF490958095A6
:10437000709561957F4F8F4F9F4F08950E948D1FBD
:1043800008F48FEF08950E948D1F880B990B0895F4
:1043900097FB072E16F4009407D077FD09D00E94F2
:1043A000062207FC05D03EF4909581959F4F089515
:1043B000709561957F4F0895A1E21A2EAA1BBB1B31
:1043C000FD010DC0AA1FBB1FEE1FFF1FA217B307E1
:1043D000E407F50720F0A21BB30BE40BF50B661FF7
:1043E000771F881F991F1A9469F7609570958095BB
:1043F00090959B01AC01BD01CF010895EE0FFF1F09
:10440000881F8BBF0790F691E02D1994AA1BBB1B48
:1044100051E107C0AA1FBB1FA617B70710F0A61BC4
:10442000B70B881F991F5A95A9F780959095BC01E5
:10443000CD010895FB01DC0102C001900D924150B5
:104440005040D8F70895FB01DC014150504048F03E
:1044500001900D920020C9F701C01D9241505040BB
:10446000E0F708950F931F93CF93DF93CDB7DEB797
:104470002E970FB6F894DEBF0FBECDBF0E891F89F1
:1044800086E08C831A8309838FEF9FE79E838D8359
:10449000AE01465E5F4F688D798DCE0101960E9418
:1044A000441A2F813885020F131FF80110822E96AF
:1044B0000FB6F894DEBF0FBECDBFDF91CF911F9135
:0844C0000F910895F894FFCF5D
:1044C800FFFF6E046E046E046E046E046E046E04C8
:1044D8006E04FF120001001300140005000D00090E
:1044E800001800100002001600070006000E000366
:1044F800000C000F00080017000B00110015000445
:10450800000A005E00BC0077010000000013037D74
:1045180002AA026003DB02B902CD020D0A006E6135
:104528006E00696E66006F766600322E332E32009A
:1045380041726475696E6F2047C582C3B3776E6533
:1045480020506F646461737A6500312E30005361C6
:104558006C6F6E204C616D706B61203A256400545D
:104568005259422044454B4F5241434A410054520C
:104578005942204E4F4300545259422057535A59DA
:1045880053544B4945004F7075C5BA6E69656E69DD
:1045980065204C616D70656B005069657277737A40
:1045A80061204C49435A4241204453313842323009
:1045B8003A20005465726D6F6D6574725F312044E6
:1045C800533138423230206E723A256420004472EA
:1045D800756761204C49435A42412044533138425F
:1045E80032303A20005465726D6F6D6574725F32B7
:1045F8002044533138423230206E723A256420000C
:104608003B0053656E64696E6720696E6974696101
:104618006C2076616C756500526571756573746997
:104628006E6720696E697469616C2076616C756566
:104638002066726F6D20636F6E74726F6C6C65723A
:10464800004F44435A5954205049455257535A59D8
:10465800434820445331384232302021212100532D
:10466800656E736F723A2000202D2D2D2D2D3E2062
:10467800004F44435A59542044525547494348200F
:10468800445331384232302021212100526563657C
:104698006976696E6720696E697469616C207661F4
:1046A8006C75652066726F6D20636F6E74726F6CC7
:1046B8006C657200496E636F6D696E67206368612F
:1046C8006E676520666F722073656E736F723A004D
:1046D8002C204E6577207374617475733A200047F7
:1046E8006174657761792073746172747570206381
:0A46F8006F6D706C6574652E000094
:00000001FF
